{
  "_format": "hh-sol-artifact-1",
  "contractName": "MyEpicNFT",
  "sourceName": "contracts/MyEpicNFT.sol",
  "abi": [
    {
      "inputs": [],
      "stateMutability": "nonpayable",
      "type": "constructor"
    },
    {
      "anonymous": false,
      "inputs": [
        {
          "indexed": true,
          "internalType": "address",
          "name": "owner",
          "type": "address"
        },
        {
          "indexed": true,
          "internalType": "address",
          "name": "approved",
          "type": "address"
        },
        {
          "indexed": true,
          "internalType": "uint256",
          "name": "tokenId",
          "type": "uint256"
        }
      ],
      "name": "Approval",
      "type": "event"
    },
    {
      "anonymous": false,
      "inputs": [
        {
          "indexed": true,
          "internalType": "address",
          "name": "owner",
          "type": "address"
        },
        {
          "indexed": true,
          "internalType": "address",
          "name": "operator",
          "type": "address"
        },
        {
          "indexed": false,
          "internalType": "bool",
          "name": "approved",
          "type": "bool"
        }
      ],
      "name": "ApprovalForAll",
      "type": "event"
    },
    {
      "anonymous": false,
      "inputs": [
        {
          "indexed": false,
          "internalType": "address",
          "name": "sender",
          "type": "address"
        },
        {
          "indexed": false,
          "internalType": "uint256",
          "name": "tokenId",
          "type": "uint256"
        },
        {
          "indexed": false,
          "internalType": "uint256",
          "name": "nftCount",
          "type": "uint256"
        }
      ],
      "name": "NewEpicNFTMinted",
      "type": "event"
    },
    {
      "anonymous": false,
      "inputs": [
        {
          "indexed": true,
          "internalType": "address",
          "name": "from",
          "type": "address"
        },
        {
          "indexed": true,
          "internalType": "address",
          "name": "to",
          "type": "address"
        },
        {
          "indexed": true,
          "internalType": "uint256",
          "name": "tokenId",
          "type": "uint256"
        }
      ],
      "name": "Transfer",
      "type": "event"
    },
    {
      "inputs": [
        {
          "internalType": "address",
          "name": "to",
          "type": "address"
        },
        {
          "internalType": "uint256",
          "name": "tokenId",
          "type": "uint256"
        }
      ],
      "name": "approve",
      "outputs": [],
      "stateMutability": "nonpayable",
      "type": "function"
    },
    {
      "inputs": [
        {
          "internalType": "address",
          "name": "owner",
          "type": "address"
        }
      ],
      "name": "balanceOf",
      "outputs": [
        {
          "internalType": "uint256",
          "name": "",
          "type": "uint256"
        }
      ],
      "stateMutability": "view",
      "type": "function"
    },
    {
      "inputs": [
        {
          "internalType": "uint256",
          "name": "tokenId",
          "type": "uint256"
        }
      ],
      "name": "getApproved",
      "outputs": [
        {
          "internalType": "address",
          "name": "",
          "type": "address"
        }
      ],
      "stateMutability": "view",
      "type": "function"
    },
    {
      "inputs": [
        {
          "internalType": "address",
          "name": "owner",
          "type": "address"
        },
        {
          "internalType": "address",
          "name": "operator",
          "type": "address"
        }
      ],
      "name": "isApprovedForAll",
      "outputs": [
        {
          "internalType": "bool",
          "name": "",
          "type": "bool"
        }
      ],
      "stateMutability": "view",
      "type": "function"
    },
    {
      "inputs": [],
      "name": "makeAnEpicNFT",
      "outputs": [],
      "stateMutability": "nonpayable",
      "type": "function"
    },
    {
      "inputs": [],
      "name": "name",
      "outputs": [
        {
          "internalType": "string",
          "name": "",
          "type": "string"
        }
      ],
      "stateMutability": "view",
      "type": "function"
    },
    {
      "inputs": [],
      "name": "nftCount",
      "outputs": [
        {
          "internalType": "uint256",
          "name": "_value",
          "type": "uint256"
        }
      ],
      "stateMutability": "view",
      "type": "function"
    },
    {
      "inputs": [
        {
          "internalType": "uint256",
          "name": "tokenId",
          "type": "uint256"
        }
      ],
      "name": "ownerOf",
      "outputs": [
        {
          "internalType": "address",
          "name": "",
          "type": "address"
        }
      ],
      "stateMutability": "view",
      "type": "function"
    },
    {
      "inputs": [
        {
          "internalType": "uint256",
          "name": "tokenId",
          "type": "uint256"
        }
      ],
      "name": "pickRandomFirstWord",
      "outputs": [
        {
          "internalType": "string",
          "name": "",
          "type": "string"
        }
      ],
      "stateMutability": "view",
      "type": "function"
    },
    {
      "inputs": [
        {
          "internalType": "uint256",
          "name": "tokenId",
          "type": "uint256"
        }
      ],
      "name": "pickRandomSecondWord",
      "outputs": [
        {
          "internalType": "string",
          "name": "",
          "type": "string"
        }
      ],
      "stateMutability": "view",
      "type": "function"
    },
    {
      "inputs": [
        {
          "internalType": "uint256",
          "name": "tokenId",
          "type": "uint256"
        }
      ],
      "name": "pickRandomThirdWord",
      "outputs": [
        {
          "internalType": "string",
          "name": "",
          "type": "string"
        }
      ],
      "stateMutability": "view",
      "type": "function"
    },
    {
      "inputs": [
        {
          "internalType": "address",
          "name": "from",
          "type": "address"
        },
        {
          "internalType": "address",
          "name": "to",
          "type": "address"
        },
        {
          "internalType": "uint256",
          "name": "tokenId",
          "type": "uint256"
        }
      ],
      "name": "safeTransferFrom",
      "outputs": [],
      "stateMutability": "nonpayable",
      "type": "function"
    },
    {
      "inputs": [
        {
          "internalType": "address",
          "name": "from",
          "type": "address"
        },
        {
          "internalType": "address",
          "name": "to",
          "type": "address"
        },
        {
          "internalType": "uint256",
          "name": "tokenId",
          "type": "uint256"
        },
        {
          "internalType": "bytes",
          "name": "data",
          "type": "bytes"
        }
      ],
      "name": "safeTransferFrom",
      "outputs": [],
      "stateMutability": "nonpayable",
      "type": "function"
    },
    {
      "inputs": [
        {
          "internalType": "address",
          "name": "operator",
          "type": "address"
        },
        {
          "internalType": "bool",
          "name": "approved",
          "type": "bool"
        }
      ],
      "name": "setApprovalForAll",
      "outputs": [],
      "stateMutability": "nonpayable",
      "type": "function"
    },
    {
      "inputs": [
        {
          "internalType": "bytes4",
          "name": "interfaceId",
          "type": "bytes4"
        }
      ],
      "name": "supportsInterface",
      "outputs": [
        {
          "internalType": "bool",
          "name": "",
          "type": "bool"
        }
      ],
      "stateMutability": "view",
      "type": "function"
    },
    {
      "inputs": [],
      "name": "symbol",
      "outputs": [
        {
          "internalType": "string",
          "name": "",
          "type": "string"
        }
      ],
      "stateMutability": "view",
      "type": "function"
    },
    {
      "inputs": [
        {
          "internalType": "uint256",
          "name": "tokenId",
          "type": "uint256"
        }
      ],
      "name": "tokenURI",
      "outputs": [
        {
          "internalType": "string",
          "name": "",
          "type": "string"
        }
      ],
      "stateMutability": "view",
      "type": "function"
    },
    {
      "inputs": [
        {
          "internalType": "address",
          "name": "from",
          "type": "address"
        },
        {
          "internalType": "address",
          "name": "to",
          "type": "address"
        },
        {
          "internalType": "uint256",
          "name": "tokenId",
          "type": "uint256"
        }
      ],
      "name": "transferFrom",
      "outputs": [],
      "stateMutability": "nonpayable",
      "type": "function"
    }
  ],
  "bytecode": "0x608060405260405180610160016040528061012f81526020016200447261012f9139600990805190602001906200003892919062000689565b506040518060c001604052806040518060400160405280600881526020017f746f6e6172696e6f00000000000000000000000000000000000000000000000081525081526020016040518060400160405280600a81526020017f616f6d616b6967616d690000000000000000000000000000000000000000000081525081526020016040518060400160405280600481526020017f626173750000000000000000000000000000000000000000000000000000000081525081526020016040518060400160405280600581526020017f6b6165727500000000000000000000000000000000000000000000000000000081525081526020016040518060400160405280600581526020017f746f6b796f00000000000000000000000000000000000000000000000000000081525081526020016040518060400160405280600181526020017f4900000000000000000000000000000000000000000000000000000000000000815250815250600a906006620001b69291906200071a565b506040518060c001604052806040518060400160405280600881526020017f6b79616b752d686100000000000000000000000000000000000000000000000081525081526020016040518060400160405280600b81526020017f616b616d616b6967616d6900000000000000000000000000000000000000000081525081526020016040518060400160405280600481526020017f676173750000000000000000000000000000000000000000000000000000000081525081526020016040518060400160405280600b81526020017f70796f6b6f2d70796f6b6f00000000000000000000000000000000000000000081525081526020016040518060400160405280600681526020017f746f6b6b796f000000000000000000000000000000000000000000000000000081525081526020016040518060400160405280600281526020017f616d000000000000000000000000000000000000000000000000000000000000815250815250600b906006620003349291906200071a565b506040518060c001604052806040518060400160405280601481526020017f796f6b752d6b616b696b75752d6b79616b75646100000000000000000000000081525081526020016040518060400160405280600a81526020017f6b696d616b6967616d690000000000000000000000000000000000000000000081525081526020016040518060400160405280600981526020017f62616b756861747375000000000000000000000000000000000000000000000081525081526020016040518060400160405280600e81526020017f6d752d70796f6b6f2d70796f6b6f00000000000000000000000000000000000081525081526020016040518060400160405280600b81526020017f6b796f6b612d6b796f6b7500000000000000000000000000000000000000000081525081526020016040518060400160405280600681526020017f68756e6772790000000000000000000000000000000000000000000000000000815250815250600c906006620004b29291906200071a565b50348015620004c057600080fd5b506040518060400160405280600981526020017f5371756172654e465400000000000000000000000000000000000000000000008152506040518060400160405280600681526020017f535155415245000000000000000000000000000000000000000000000000000081525081600090805190602001906200054592919062000689565b5080600190805190602001906200055e92919062000689565b505050620005ac6040518060400160405280601881526020017f54686973206973206d79204e465420636f6e74726163742e0000000000000000815250620005bd60201b620011b81760201c565b603c6008600001819055506200093b565b6200065d81604051602401620005d49190620008b2565b6040516020818303038152906040527f41304fac000000000000000000000000000000000000000000000000000000007bffffffffffffffffffffffffffffffffffffffffffffffffffffffff19166020820180517bffffffffffffffffffffffffffffffffffffffffffffffffffffffff83818316178352505050506200066060201b60201c565b50565b60008151905060006a636f6e736f6c652e6c6f679050602083016000808483855afa5050505050565b828054620006979062000905565b90600052602060002090601f016020900481019282620006bb576000855562000707565b82601f10620006d657805160ff191683800117855562000707565b8280016001018555821562000707579182015b8281111562000706578251825591602001919060010190620006e9565b5b50905062000716919062000781565b5090565b8280548282559060005260206000209081019282156200076e579160200282015b828111156200076d5782518290805190602001906200075c92919062000689565b50916020019190600101906200073b565b5b5090506200077d9190620007a0565b5090565b5b808211156200079c57600081600090555060010162000782565b5090565b5b80821115620007c45760008181620007ba9190620007c8565b50600101620007a1565b5090565b508054620007d69062000905565b6000825580601f10620007ea57506200080b565b601f0160209004906000526020600020908101906200080a919062000781565b5b50565b600081519050919050565b600082825260208201905092915050565b60005b838110156200084a5780820151818401526020810190506200082d565b838111156200085a576000848401525b50505050565b6000601f19601f8301169050919050565b60006200087e826200080e565b6200088a818562000819565b93506200089c8185602086016200082a565b620008a78162000860565b840191505092915050565b60006020820190508181036000830152620008ce818462000871565b905092915050565b7f4e487b7100000000000000000000000000000000000000000000000000000000600052602260045260246000fd5b600060028204905060018216806200091e57607f821691505b60208210811415620009355762000934620008d6565b5b50919050565b613b27806200094b6000396000f3fe608060405234801561001057600080fd5b50600436106101165760003560e01c806370a08231116100a2578063b88d4fde11610071578063b88d4fde14610305578063c575757a14610321578063c87b56dd14610351578063de9d132f14610381578063e985e9c51461038b57610116565b806370a082311461026b57806395d89b411461029b578063a22cb465146102b9578063b187301f146102d557610116565b80630af2c6ca116100e95780630af2c6ca146101b557806323b872dd146101d35780632de38d68146101ef57806342842e0e1461021f5780636352211e1461023b57610116565b806301ffc9a71461011b57806306fdde031461014b578063081812fc14610169578063095ea7b314610199575b600080fd5b610135600480360381019061013091906124bd565b6103bb565b6040516101429190612505565b60405180910390f35b61015361049d565b60405161016091906125b9565b60405180910390f35b610183600480360381019061017e9190612611565b61052f565b604051610190919061267f565b60405180910390f35b6101b360048036038101906101ae91906126c6565b610575565b005b6101bd61068d565b6040516101ca9190612715565b60405180910390f35b6101ed60048036038101906101e89190612730565b610699565b005b61020960048036038101906102049190612611565b6106f9565b60405161021691906125b9565b60405180910390f35b61023960048036038101906102349190612730565b61086f565b005b61025560048036038101906102509190612611565b61088f565b604051610262919061267f565b60405180910390f35b61028560048036038101906102809190612783565b610941565b6040516102929190612715565b60405180910390f35b6102a36109f9565b6040516102b091906125b9565b60405180910390f35b6102d360048036038101906102ce91906127dc565b610a8b565b005b6102ef60048036038101906102ea9190612611565b610aa1565b6040516102fc91906125b9565b60405180910390f35b61031f600480360381019061031a9190612951565b610b99565b005b61033b60048036038101906103369190612611565b610bfb565b60405161034891906125b9565b60405180910390f35b61036b60048036038101906103669190612611565b610cf3565b60405161037891906125b9565b60405180910390f35b610389610e06565b005b6103a560048036038101906103a091906129d4565b611124565b6040516103b29190612505565b60405180910390f35b60007f80ac58cd000000000000000000000000000000000000000000000000000000007bffffffffffffffffffffffffffffffffffffffffffffffffffffffff1916827bffffffffffffffffffffffffffffffffffffffffffffffffffffffff1916148061048657507f5b5e139f000000000000000000000000000000000000000000000000000000007bffffffffffffffffffffffffffffffffffffffffffffffffffffffff1916827bffffffffffffffffffffffffffffffffffffffffffffffffffffffff1916145b80610496575061049582611251565b5b9050919050565b6060600080546104ac90612a43565b80601f01602080910402602001604051908101604052809291908181526020018280546104d890612a43565b80156105255780601f106104fa57610100808354040283529160200191610525565b820191906000526020600020905b81548152906001019060200180831161050857829003601f168201915b5050505050905090565b600061053a826112bb565b6004600083815260200190815260200160002060009054906101000a900473ffffffffffffffffffffffffffffffffffffffff169050919050565b60006105808261088f565b90508073ffffffffffffffffffffffffffffffffffffffff168373ffffffffffffffffffffffffffffffffffffffff1614156105f1576040517f08c379a00000000000000000000000000000000000000000000000000000000081526004016105e890612ae7565b60405180910390fd5b8073ffffffffffffffffffffffffffffffffffffffff16610610611306565b73ffffffffffffffffffffffffffffffffffffffff16148061063f575061063e81610639611306565b611124565b5b61067e576040517f08c379a000000000000000000000000000000000000000000000000000000000815260040161067590612b79565b60405180910390fd5b610688838361130e565b505050565b60088060000154905081565b6106aa6106a4611306565b826113c7565b6106e9576040517f08c379a00000000000000000000000000000000000000000000000000000000081526004016106e090612c0b565b60405180910390fd5b6106f483838361145c565b505050565b6060600061072d610709846116c3565b6040516020016107199190612cb3565b604051602081830303815290604052611824565b905061076e6040518060400160405280600b81526020017f72616e6420736565643a2000000000000000000000000000000000000000000081525082611857565b600a805490508161077f9190612d04565b90506107c06040518060400160405280601181526020017f72616e6420666972737420776f72643a2000000000000000000000000000000081525082611857565b600a81815481106107d4576107d3612d35565b5b9060005260206000200180546107e990612a43565b80601f016020809104026020016040519081016040528092919081815260200182805461081590612a43565b80156108625780601f1061083757610100808354040283529160200191610862565b820191906000526020600020905b81548152906001019060200180831161084557829003601f168201915b5050505050915050919050565b61088a83838360405180602001604052806000815250610b99565b505050565b6000806002600084815260200190815260200160002060009054906101000a900473ffffffffffffffffffffffffffffffffffffffff169050600073ffffffffffffffffffffffffffffffffffffffff168173ffffffffffffffffffffffffffffffffffffffff161415610938576040517f08c379a000000000000000000000000000000000000000000000000000000000815260040161092f90612db0565b60405180910390fd5b80915050919050565b60008073ffffffffffffffffffffffffffffffffffffffff168273ffffffffffffffffffffffffffffffffffffffff1614156109b2576040517f08c379a00000000000000000000000000000000000000000000000000000000081526004016109a990612e42565b60405180910390fd5b600360008373ffffffffffffffffffffffffffffffffffffffff1673ffffffffffffffffffffffffffffffffffffffff168152602001908152602001600020549050919050565b606060018054610a0890612a43565b80601f0160208091040260200160405190810160405280929190818152602001828054610a3490612a43565b8015610a815780601f10610a5657610100808354040283529160200191610a81565b820191906000526020600020905b815481529060010190602001808311610a6457829003601f168201915b5050505050905090565b610a9d610a96611306565b83836118f3565b5050565b60606000610ad5610ab1846116c3565b604051602001610ac19190612eae565b604051602081830303815290604052611824565b9050600b8054905081610ae89190612d04565b9050600b8181548110610afe57610afd612d35565b5b906000526020600020018054610b1390612a43565b80601f0160208091040260200160405190810160405280929190818152602001828054610b3f90612a43565b8015610b8c5780601f10610b6157610100808354040283529160200191610b8c565b820191906000526020600020905b815481529060010190602001808311610b6f57829003601f168201915b5050505050915050919050565b610baa610ba4611306565b836113c7565b610be9576040517f08c379a0000000000000000000000000000000000000000000000000000000008152600401610be090612c0b565b60405180910390fd5b610bf584848484611a60565b50505050565b60606000610c2f610c0b846116c3565b604051602001610c1b9190612f1c565b604051602081830303815290604052611824565b9050600c8054905081610c429190612d04565b9050600c8181548110610c5857610c57612d35565b5b906000526020600020018054610c6d90612a43565b80601f0160208091040260200160405190810160405280929190818152602001828054610c9990612a43565b8015610ce65780601f10610cbb57610100808354040283529160200191610ce6565b820191906000526020600020905b815481529060010190602001808311610cc957829003601f168201915b5050505050915050919050565b6060610cfe826112bb565b6000600660008481526020019081526020016000208054610d1e90612a43565b80601f0160208091040260200160405190810160405280929190818152602001828054610d4a90612a43565b8015610d975780601f10610d6c57610100808354040283529160200191610d97565b820191906000526020600020905b815481529060010190602001808311610d7a57829003601f168201915b505050505090506000610da8611abc565b9050600081511415610dbe578192505050610e01565b600082511115610df3578082604051602001610ddb929190612f3e565b60405160208183030381529060405292505050610e01565b610dfc84611ad3565b925050505b919050565b6000610e126008611b3b565b11610e52576040517f08c379a0000000000000000000000000000000000000000000000000000000008152600401610e4990612fae565b60405180910390fd5b6000610e5e6007611b3b565b90506000610e6b826106f9565b90506000610e7883610aa1565b90506000610e8584610bfb565b90506000838383604051602001610e9e93929190612fce565b604051602081830303815290604052905060006009858585604051602001610ec994939291906130df565b6040516020818303038152906040529050610f186040518060400160405280601581526020017f0a2d2d2d2d2d205356472064617461202d2d2d2d2d00000000000000000000008152506111b8565b610f21816111b8565b610f5f6040518060400160405280601581526020017f2d2d2d2d2d2d2d2d2d2d2d2d2d2d2d2d2d2d2d2d0a00000000000000000000008152506111b8565b6000610f9383610f6e84611b49565b604051602001610f7f92919061327e565b604051602081830303815290604052611b49565b9050600081604051602001610fa8919061330f565b6040516020818303038152906040529050610ff76040518060400160405280601581526020017f0a2d2d2d2d2d20546f6b656e20555249202d2d2d2d00000000000000000000008152506111b8565b611000816111b8565b61103e6040518060400160405280601581526020017f2d2d2d2d2d2d2d2d2d2d2d2d2d2d2d2d2d2d2d2d0a00000000000000000000008152506111b8565b6110483389611ce1565b6110528882611cff565b611075604051806060016040528060258152602001613a8d602591398933611d73565b61107f6007611e12565b6110896008611e28565b60006110956008611b3b565b90506110de6040518060400160405280600c81526020017f6e6674436f756e743a20257300000000000000000000000000000000000000008152506110d9836116c3565b611e84565b7f9e9e101732de0887d722bd72c01c5439edc857c9c2c763953d67e66de12441d3338a8360405161111193929190613331565b60405180910390a1505050505050505050565b6000600560008473ffffffffffffffffffffffffffffffffffffffff1673ffffffffffffffffffffffffffffffffffffffff16815260200190815260200160002060008373ffffffffffffffffffffffffffffffffffffffff1673ffffffffffffffffffffffffffffffffffffffff16815260200190815260200160002060009054906101000a900460ff16905092915050565b61124e816040516024016111cc91906125b9565b6040516020818303038152906040527f41304fac000000000000000000000000000000000000000000000000000000007bffffffffffffffffffffffffffffffffffffffffffffffffffffffff19166020820180517bffffffffffffffffffffffffffffffffffffffffffffffffffffffff8381831617835250505050611f20565b50565b60007f01ffc9a7000000000000000000000000000000000000000000000000000000007bffffffffffffffffffffffffffffffffffffffffffffffffffffffff1916827bffffffffffffffffffffffffffffffffffffffffffffffffffffffff1916149050919050565b6112c481611f49565b611303576040517f08c379a00000000000000000000000000000000000000000000000000000000081526004016112fa90612db0565b60405180910390fd5b50565b600033905090565b816004600083815260200190815260200160002060006101000a81548173ffffffffffffffffffffffffffffffffffffffff021916908373ffffffffffffffffffffffffffffffffffffffff160217905550808273ffffffffffffffffffffffffffffffffffffffff166113818361088f565b73ffffffffffffffffffffffffffffffffffffffff167f8c5be1e5ebec7d5bd14f71427d1e84f3dd0314c0f7b2291e5b200ac8c7c3b92560405160405180910390a45050565b6000806113d38361088f565b90508073ffffffffffffffffffffffffffffffffffffffff168473ffffffffffffffffffffffffffffffffffffffff16148061141557506114148185611124565b5b8061145357508373ffffffffffffffffffffffffffffffffffffffff1661143b8461052f565b73ffffffffffffffffffffffffffffffffffffffff16145b91505092915050565b8273ffffffffffffffffffffffffffffffffffffffff1661147c8261088f565b73ffffffffffffffffffffffffffffffffffffffff16146114d2576040517f08c379a00000000000000000000000000000000000000000000000000000000081526004016114c9906133da565b60405180910390fd5b600073ffffffffffffffffffffffffffffffffffffffff168273ffffffffffffffffffffffffffffffffffffffff161415611542576040517f08c379a00000000000000000000000000000000000000000000000000000000081526004016115399061346c565b60405180910390fd5b61154d838383611fb5565b61155860008261130e565b6001600360008573ffffffffffffffffffffffffffffffffffffffff1673ffffffffffffffffffffffffffffffffffffffff16815260200190815260200160002060008282546115a891906134bb565b925050819055506001600360008473ffffffffffffffffffffffffffffffffffffffff1673ffffffffffffffffffffffffffffffffffffffff16815260200190815260200160002060008282546115ff91906134ef565b92505081905550816002600083815260200190815260200160002060006101000a81548173ffffffffffffffffffffffffffffffffffffffff021916908373ffffffffffffffffffffffffffffffffffffffff160217905550808273ffffffffffffffffffffffffffffffffffffffff168473ffffffffffffffffffffffffffffffffffffffff167fddf252ad1be2c89b69c2b068fc378daa952ba7f163c4a11628f55a4df523b3ef60405160405180910390a46116be838383611fba565b505050565b6060600082141561170b576040518060400160405280600181526020017f3000000000000000000000000000000000000000000000000000000000000000815250905061181f565b600082905060005b6000821461173d57808061172690613545565b915050600a82611736919061358e565b9150611713565b60008167ffffffffffffffff81111561175957611758612826565b5b6040519080825280601f01601f19166020018201604052801561178b5781602001600182028036833780820191505090505b5090505b60008514611818576001826117a491906134bb565b9150600a856117b39190612d04565b60306117bf91906134ef565b60f81b8183815181106117d5576117d4612d35565b5b60200101907effffffffffffffffffffffffffffffffffffffffffffffffffffffffffffff1916908160001a905350600a85611811919061358e565b945061178f565b8093505050505b919050565b60008160405160200161183791906135bf565b6040516020818303038152906040528051906020012060001c9050919050565b6118ef828260405160240161186d9291906135d6565b6040516020818303038152906040527f9710a9d0000000000000000000000000000000000000000000000000000000007bffffffffffffffffffffffffffffffffffffffffffffffffffffffff19166020820180517bffffffffffffffffffffffffffffffffffffffffffffffffffffffff8381831617835250505050611f20565b5050565b8173ffffffffffffffffffffffffffffffffffffffff168373ffffffffffffffffffffffffffffffffffffffff161415611962576040517f08c379a000000000000000000000000000000000000000000000000000000000815260040161195990613652565b60405180910390fd5b80600560008573ffffffffffffffffffffffffffffffffffffffff1673ffffffffffffffffffffffffffffffffffffffff16815260200190815260200160002060008473ffffffffffffffffffffffffffffffffffffffff1673ffffffffffffffffffffffffffffffffffffffff16815260200190815260200160002060006101000a81548160ff0219169083151502179055508173ffffffffffffffffffffffffffffffffffffffff168373ffffffffffffffffffffffffffffffffffffffff167f17307eab39ab6107e8899845ad3d59bd9653f200f220920489ca2b5937696c3183604051611a539190612505565b60405180910390a3505050565b611a6b84848461145c565b611a7784848484611fbf565b611ab6576040517f08c379a0000000000000000000000000000000000000000000000000000000008152600401611aad906136e4565b60405180910390fd5b50505050565b606060405180602001604052806000815250905090565b6060611ade826112bb565b6000611ae8611abc565b90506000815111611b085760405180602001604052806000815250611b33565b80611b12846116c3565b604051602001611b23929190612f3e565b6040516020818303038152906040525b915050919050565b600081600001549050919050565b60606000825190506000811415611b725760405180602001604052806000815250915050611cdc565b60006003600283611b8391906134ef565b611b8d919061358e565b6004611b999190613704565b90506000602082611baa91906134ef565b67ffffffffffffffff811115611bc357611bc2612826565b5b6040519080825280601f01601f191660200182016040528015611bf55781602001600182028036833780820191505090505b5090506000604051806060016040528060408152602001613ab2604091399050600181016020830160005b86811015611c995760038101905062ffffff818a015116603f8160121c168401518060081b905060ff603f83600c1c1686015116810190508060081b905060ff603f8360061c1686015116810190508060081b905060ff603f831686015116810190508060e01b90508084526004840193505050611c20565b506003860660018114611cb35760028114611cc357611cce565b613d3d60f01b6002830352611cce565b603d60f81b60018303525b508484525050819450505050505b919050565b611cfb828260405180602001604052806000815250612156565b5050565b611d0882611f49565b611d47576040517f08c379a0000000000000000000000000000000000000000000000000000000008152600401611d3e906137d0565b60405180910390fd5b80600660008481526020019081526020016000209080519060200190611d6e9291906123ae565b505050565b611e0d838383604051602401611d8b939291906137f0565b6040516020818303038152906040527fe3849f79000000000000000000000000000000000000000000000000000000007bffffffffffffffffffffffffffffffffffffffffffffffffffffffff19166020820180517bffffffffffffffffffffffffffffffffffffffffffffffffffffffff8381831617835250505050611f20565b505050565b6001816000016000828254019250508190555050565b60008160000154905060008111611e74576040517f08c379a0000000000000000000000000000000000000000000000000000000008152600401611e6b9061387a565b60405180910390fd5b6001810382600001819055505050565b611f1c8282604051602401611e9a92919061389a565b6040516020818303038152906040527f4b5c4277000000000000000000000000000000000000000000000000000000007bffffffffffffffffffffffffffffffffffffffffffffffffffffffff19166020820180517bffffffffffffffffffffffffffffffffffffffffffffffffffffffff8381831617835250505050611f20565b5050565b60008151905060006a636f6e736f6c652e6c6f679050602083016000808483855afa5050505050565b60008073ffffffffffffffffffffffffffffffffffffffff166002600084815260200190815260200160002060009054906101000a900473ffffffffffffffffffffffffffffffffffffffff1673ffffffffffffffffffffffffffffffffffffffff1614159050919050565b505050565b505050565b6000611fe08473ffffffffffffffffffffffffffffffffffffffff166121b1565b15612149578373ffffffffffffffffffffffffffffffffffffffff1663150b7a02612009611306565b8786866040518563ffffffff1660e01b815260040161202b9493929190613926565b602060405180830381600087803b15801561204557600080fd5b505af192505050801561207657506040513d601f19601f820116820180604052508101906120739190613987565b60015b6120f9573d80600081146120a6576040519150601f19603f3d011682016040523d82523d6000602084013e6120ab565b606091505b506000815114156120f1576040517f08c379a00000000000000000000000000000000000000000000000000000000081526004016120e8906136e4565b60405180910390fd5b805181602001fd5b63150b7a0260e01b7bffffffffffffffffffffffffffffffffffffffffffffffffffffffff1916817bffffffffffffffffffffffffffffffffffffffffffffffffffffffff19161491505061214e565b600190505b949350505050565b61216083836121d4565b61216d6000848484611fbf565b6121ac576040517f08c379a00000000000000000000000000000000000000000000000000000000081526004016121a3906136e4565b60405180910390fd5b505050565b6000808273ffffffffffffffffffffffffffffffffffffffff163b119050919050565b600073ffffffffffffffffffffffffffffffffffffffff168273ffffffffffffffffffffffffffffffffffffffff161415612244576040517f08c379a000000000000000000000000000000000000000000000000000000000815260040161223b90613a00565b60405180910390fd5b61224d81611f49565b1561228d576040517f08c379a000000000000000000000000000000000000000000000000000000000815260040161228490613a6c565b60405180910390fd5b61229960008383611fb5565b6001600360008473ffffffffffffffffffffffffffffffffffffffff1673ffffffffffffffffffffffffffffffffffffffff16815260200190815260200160002060008282546122e991906134ef565b92505081905550816002600083815260200190815260200160002060006101000a81548173ffffffffffffffffffffffffffffffffffffffff021916908373ffffffffffffffffffffffffffffffffffffffff160217905550808273ffffffffffffffffffffffffffffffffffffffff16600073ffffffffffffffffffffffffffffffffffffffff167fddf252ad1be2c89b69c2b068fc378daa952ba7f163c4a11628f55a4df523b3ef60405160405180910390a46123aa60008383611fba565b5050565b8280546123ba90612a43565b90600052602060002090601f0160209004810192826123dc5760008555612423565b82601f106123f557805160ff1916838001178555612423565b82800160010185558215612423579182015b82811115612422578251825591602001919060010190612407565b5b5090506124309190612434565b5090565b5b8082111561244d576000816000905550600101612435565b5090565b6000604051905090565b600080fd5b600080fd5b60007fffffffff0000000000000000000000000000000000000000000000000000000082169050919050565b61249a81612465565b81146124a557600080fd5b50565b6000813590506124b781612491565b92915050565b6000602082840312156124d3576124d261245b565b5b60006124e1848285016124a8565b91505092915050565b60008115159050919050565b6124ff816124ea565b82525050565b600060208201905061251a60008301846124f6565b92915050565b600081519050919050565b600082825260208201905092915050565b60005b8381101561255a57808201518184015260208101905061253f565b83811115612569576000848401525b50505050565b6000601f19601f8301169050919050565b600061258b82612520565b612595818561252b565b93506125a581856020860161253c565b6125ae8161256f565b840191505092915050565b600060208201905081810360008301526125d38184612580565b905092915050565b6000819050919050565b6125ee816125db565b81146125f957600080fd5b50565b60008135905061260b816125e5565b92915050565b6000602082840312156126275761262661245b565b5b6000612635848285016125fc565b91505092915050565b600073ffffffffffffffffffffffffffffffffffffffff82169050919050565b60006126698261263e565b9050919050565b6126798161265e565b82525050565b60006020820190506126946000830184612670565b92915050565b6126a38161265e565b81146126ae57600080fd5b50565b6000813590506126c08161269a565b92915050565b600080604083850312156126dd576126dc61245b565b5b60006126eb858286016126b1565b92505060206126fc858286016125fc565b9150509250929050565b61270f816125db565b82525050565b600060208201905061272a6000830184612706565b92915050565b6000806000606084860312156127495761274861245b565b5b6000612757868287016126b1565b9350506020612768868287016126b1565b9250506040612779868287016125fc565b9150509250925092565b6000602082840312156127995761279861245b565b5b60006127a7848285016126b1565b91505092915050565b6127b9816124ea565b81146127c457600080fd5b50565b6000813590506127d6816127b0565b92915050565b600080604083850312156127f3576127f261245b565b5b6000612801858286016126b1565b9250506020612812858286016127c7565b9150509250929050565b600080fd5b600080fd5b7f4e487b7100000000000000000000000000000000000000000000000000000000600052604160045260246000fd5b61285e8261256f565b810181811067ffffffffffffffff8211171561287d5761287c612826565b5b80604052505050565b6000612890612451565b905061289c8282612855565b919050565b600067ffffffffffffffff8211156128bc576128bb612826565b5b6128c58261256f565b9050602081019050919050565b82818337600083830152505050565b60006128f46128ef846128a1565b612886565b9050828152602081018484840111156129105761290f612821565b5b61291b8482856128d2565b509392505050565b600082601f8301126129385761293761281c565b5b81356129488482602086016128e1565b91505092915050565b6000806000806080858703121561296b5761296a61245b565b5b6000612979878288016126b1565b945050602061298a878288016126b1565b935050604061299b878288016125fc565b925050606085013567ffffffffffffffff8111156129bc576129bb612460565b5b6129c887828801612923565b91505092959194509250565b600080604083850312156129eb576129ea61245b565b5b60006129f9858286016126b1565b9250506020612a0a858286016126b1565b9150509250929050565b7f4e487b7100000000000000000000000000000000000000000000000000000000600052602260045260246000fd5b60006002820490506001821680612a5b57607f821691505b60208210811415612a6f57612a6e612a14565b5b50919050565b7f4552433732313a20617070726f76616c20746f2063757272656e74206f776e6560008201527f7200000000000000000000000000000000000000000000000000000000000000602082015250565b6000612ad160218361252b565b9150612adc82612a75565b604082019050919050565b60006020820190508181036000830152612b0081612ac4565b9050919050565b7f4552433732313a20617070726f76652063616c6c6572206973206e6f7420746f60008201527f6b656e206f776e6572206e6f7220617070726f76656420666f7220616c6c0000602082015250565b6000612b63603e8361252b565b9150612b6e82612b07565b604082019050919050565b60006020820190508181036000830152612b9281612b56565b9050919050565b7f4552433732313a2063616c6c6572206973206e6f7420746f6b656e206f776e6560008201527f72206e6f7220617070726f766564000000000000000000000000000000000000602082015250565b6000612bf5602e8361252b565b9150612c0082612b99565b604082019050919050565b60006020820190508181036000830152612c2481612be8565b9050919050565b600081905092915050565b7f46495253545f574f524400000000000000000000000000000000000000000000600082015250565b6000612c6c600a83612c2b565b9150612c7782612c36565b600a82019050919050565b6000612c8d82612520565b612c978185612c2b565b9350612ca781856020860161253c565b80840191505092915050565b6000612cbe82612c5f565b9150612cca8284612c82565b915081905092915050565b7f4e487b7100000000000000000000000000000000000000000000000000000000600052601260045260246000fd5b6000612d0f826125db565b9150612d1a836125db565b925082612d2a57612d29612cd5565b5b828206905092915050565b7f4e487b7100000000000000000000000000000000000000000000000000000000600052603260045260246000fd5b7f4552433732313a20696e76616c696420746f6b656e2049440000000000000000600082015250565b6000612d9a60188361252b565b9150612da582612d64565b602082019050919050565b60006020820190508181036000830152612dc981612d8d565b9050919050565b7f4552433732313a2061646472657373207a65726f206973206e6f74206120766160008201527f6c6964206f776e65720000000000000000000000000000000000000000000000602082015250565b6000612e2c60298361252b565b9150612e3782612dd0565b604082019050919050565b60006020820190508181036000830152612e5b81612e1f565b9050919050565b7f5345434f4e445f574f5244000000000000000000000000000000000000000000600082015250565b6000612e98600b83612c2b565b9150612ea382612e62565b600b82019050919050565b6000612eb982612e8b565b9150612ec58284612c82565b915081905092915050565b7f54484952445f574f524400000000000000000000000000000000000000000000600082015250565b6000612f06600a83612c2b565b9150612f1182612ed0565b600a82019050919050565b6000612f2782612ef9565b9150612f338284612c82565b915081905092915050565b6000612f4a8285612c82565b9150612f568284612c82565b91508190509392505050565b7f6e6f204e46542072656d61696e73000000000000000000000000000000000000600082015250565b6000612f98600e8361252b565b9150612fa382612f62565b602082019050919050565b60006020820190508181036000830152612fc781612f8b565b9050919050565b6000612fda8286612c82565b9150612fe68285612c82565b9150612ff28284612c82565b9150819050949350505050565b60008190508160005260206000209050919050565b6000815461302181612a43565b61302b8186612c2b565b9450600182166000811461304657600181146130575761308a565b60ff1983168652818601935061308a565b61306085612fff565b60005b8381101561308257815481890152600182019150602081019050613063565b838801955050505b50505092915050565b7f3c2f746578743e3c2f7376673e00000000000000000000000000000000000000600082015250565b60006130c9600d83612c2b565b91506130d482613093565b600d82019050919050565b60006130eb8287613014565b91506130f78286612c82565b91506131038285612c82565b915061310f8284612c82565b915061311a826130bc565b915081905095945050505050565b7f7b226e616d65223a202200000000000000000000000000000000000000000000600082015250565b600061315e600a83612c2b565b915061316982613128565b600a82019050919050565b7f222c20226465736372697074696f6e223a20224120686967686c79206163636c60008201527f61696d656420636f6c6c656374696f6e206f6620737175617265732e222c202260208201527f696d616765223a2022646174613a696d6167652f7376672b786d6c3b6261736560408201527f36342c0000000000000000000000000000000000000000000000000000000000606082015250565b600061321c606383612c2b565b915061322782613174565b606382019050919050565b7f227d000000000000000000000000000000000000000000000000000000000000600082015250565b6000613268600283612c2b565b915061327382613232565b600282019050919050565b600061328982613151565b91506132958285612c82565b91506132a08261320f565b91506132ac8284612c82565b91506132b78261325b565b91508190509392505050565b7f646174613a6170706c69636174696f6e2f6a736f6e3b6261736536342c000000600082015250565b60006132f9601d83612c2b565b9150613304826132c3565b601d82019050919050565b600061331a826132ec565b91506133268284612c82565b915081905092915050565b60006060820190506133466000830186612670565b6133536020830185612706565b6133606040830184612706565b949350505050565b7f4552433732313a207472616e736665722066726f6d20696e636f72726563742060008201527f6f776e6572000000000000000000000000000000000000000000000000000000602082015250565b60006133c460258361252b565b91506133cf82613368565b604082019050919050565b600060208201905081810360008301526133f3816133b7565b9050919050565b7f4552433732313a207472616e7366657220746f20746865207a65726f2061646460008201527f7265737300000000000000000000000000000000000000000000000000000000602082015250565b600061345660248361252b565b9150613461826133fa565b604082019050919050565b6000602082019050818103600083015261348581613449565b9050919050565b7f4e487b7100000000000000000000000000000000000000000000000000000000600052601160045260246000fd5b60006134c6826125db565b91506134d1836125db565b9250828210156134e4576134e361348c565b5b828203905092915050565b60006134fa826125db565b9150613505836125db565b9250827fffffffffffffffffffffffffffffffffffffffffffffffffffffffffffffffff0382111561353a5761353961348c565b5b828201905092915050565b6000613550826125db565b91507fffffffffffffffffffffffffffffffffffffffffffffffffffffffffffffffff8214156135835761358261348c565b5b600182019050919050565b6000613599826125db565b91506135a4836125db565b9250826135b4576135b3612cd5565b5b828204905092915050565b60006135cb8284612c82565b915081905092915050565b600060408201905081810360008301526135f08185612580565b90506135ff6020830184612706565b9392505050565b7f4552433732313a20617070726f766520746f2063616c6c657200000000000000600082015250565b600061363c60198361252b565b915061364782613606565b602082019050919050565b6000602082019050818103600083015261366b8161362f565b9050919050565b7f4552433732313a207472616e7366657220746f206e6f6e20455243373231526560008201527f63656976657220696d706c656d656e7465720000000000000000000000000000602082015250565b60006136ce60328361252b565b91506136d982613672565b604082019050919050565b600060208201905081810360008301526136fd816136c1565b9050919050565b600061370f826125db565b915061371a836125db565b9250817fffffffffffffffffffffffffffffffffffffffffffffffffffffffffffffffff04831182151516156137535761375261348c565b5b828202905092915050565b7f45524337323155524953746f726167653a2055524920736574206f66206e6f6e60008201527f6578697374656e7420746f6b656e000000000000000000000000000000000000602082015250565b60006137ba602e8361252b565b91506137c58261375e565b604082019050919050565b600060208201905081810360008301526137e9816137ad565b9050919050565b6000606082019050818103600083015261380a8186612580565b90506138196020830185612706565b6138266040830184612670565b949350505050565b7f436f756e7465723a2064656372656d656e74206f766572666c6f770000000000600082015250565b6000613864601b8361252b565b915061386f8261382e565b602082019050919050565b6000602082019050818103600083015261389381613857565b9050919050565b600060408201905081810360008301526138b48185612580565b905081810360208301526138c88184612580565b90509392505050565b600081519050919050565b600082825260208201905092915050565b60006138f8826138d1565b61390281856138dc565b935061391281856020860161253c565b61391b8161256f565b840191505092915050565b600060808201905061393b6000830187612670565b6139486020830186612670565b6139556040830185612706565b818103606083015261396781846138ed565b905095945050505050565b60008151905061398181612491565b92915050565b60006020828403121561399d5761399c61245b565b5b60006139ab84828501613972565b91505092915050565b7f4552433732313a206d696e7420746f20746865207a65726f2061646472657373600082015250565b60006139ea60208361252b565b91506139f5826139b4565b602082019050919050565b60006020820190508181036000830152613a19816139dd565b9050919050565b7f4552433732313a20746f6b656e20616c7265616479206d696e74656400000000600082015250565b6000613a56601c8361252b565b9150613a6182613a20565b602082019050919050565b60006020820190508181036000830152613a8581613a49565b905091905056fe416e204e465420772f20494420257320686173206265656e206d696e74656420746f2025734142434445464748494a4b4c4d4e4f505152535455565758595a6162636465666768696a6b6c6d6e6f707172737475767778797a303132333435363738392b2fa26469706673582212200dc7b6a34c6b2e325b4c90c85be59555f7ea84a6e01f11a19ece21115a0f7e8464736f6c634300080900333c73766720786d6c6e733d27687474703a2f2f7777772e77332e6f72672f323030302f73766727207072657365727665417370656374526174696f3d27784d696e594d696e206d656574272076696577426f783d273020302033353020333530273e3c7374796c653e2e62617365207b2066696c6c3a2077686974653b20666f6e742d66616d696c793a2073657269663b20666f6e742d73697a653a20323470783b207d3c2f7374796c653e3c726563742077696474683d273130302527206865696768743d2731303025272066696c6c3d27626c61636b27202f3e3c7465787420783d273530252720793d273530252720636c6173733d27626173652720646f6d696e616e742d626173656c696e653d276d6964646c652720746578742d616e63686f723d276d6964646c65273e",
  "linkReferences": {},
  "deployedLinkReferences": {}
}