{
  "_format": "hh-sol-artifact-1",
  "contractName": "MyEpicNFT",
  "sourceName": "contracts/MyEpicNFT.sol",
  "abi": [
    {
      "inputs": [],
      "stateMutability": "nonpayable",
      "type": "constructor"
    },
    {
      "anonymous": false,
      "inputs": [
        {
          "indexed": true,
          "internalType": "address",
          "name": "owner",
          "type": "address"
        },
        {
          "indexed": true,
          "internalType": "address",
          "name": "approved",
          "type": "address"
        },
        {
          "indexed": true,
          "internalType": "uint256",
          "name": "tokenId",
          "type": "uint256"
        }
      ],
      "name": "Approval",
      "type": "event"
    },
    {
      "anonymous": false,
      "inputs": [
        {
          "indexed": true,
          "internalType": "address",
          "name": "owner",
          "type": "address"
        },
        {
          "indexed": true,
          "internalType": "address",
          "name": "operator",
          "type": "address"
        },
        {
          "indexed": false,
          "internalType": "bool",
          "name": "approved",
          "type": "bool"
        }
      ],
      "name": "ApprovalForAll",
      "type": "event"
    },
    {
      "anonymous": false,
      "inputs": [
        {
          "indexed": false,
          "internalType": "address",
          "name": "sender",
          "type": "address"
        },
        {
          "indexed": false,
          "internalType": "uint256",
          "name": "tokenId",
          "type": "uint256"
        },
        {
          "indexed": false,
          "internalType": "uint256",
          "name": "nftCount",
          "type": "uint256"
        }
      ],
      "name": "NewEpicNFTMinted",
      "type": "event"
    },
    {
      "anonymous": false,
      "inputs": [
        {
          "indexed": false,
          "internalType": "address",
          "name": "from",
          "type": "address"
        },
        {
          "indexed": false,
          "internalType": "uint256",
          "name": "value",
          "type": "uint256"
        }
      ],
      "name": "Received",
      "type": "event"
    },
    {
      "anonymous": false,
      "inputs": [
        {
          "indexed": true,
          "internalType": "address",
          "name": "from",
          "type": "address"
        },
        {
          "indexed": true,
          "internalType": "address",
          "name": "to",
          "type": "address"
        },
        {
          "indexed": true,
          "internalType": "uint256",
          "name": "tokenId",
          "type": "uint256"
        }
      ],
      "name": "Transfer",
      "type": "event"
    },
    {
      "stateMutability": "nonpayable",
      "type": "fallback"
    },
    {
      "inputs": [
        {
          "internalType": "address",
          "name": "to",
          "type": "address"
        },
        {
          "internalType": "uint256",
          "name": "tokenId",
          "type": "uint256"
        }
      ],
      "name": "approve",
      "outputs": [],
      "stateMutability": "nonpayable",
      "type": "function"
    },
    {
      "inputs": [
        {
          "internalType": "address",
          "name": "owner",
          "type": "address"
        }
      ],
      "name": "balanceOf",
      "outputs": [
        {
          "internalType": "uint256",
          "name": "",
          "type": "uint256"
        }
      ],
      "stateMutability": "view",
      "type": "function"
    },
    {
      "inputs": [
        {
          "internalType": "uint256",
          "name": "tokenId",
          "type": "uint256"
        }
      ],
      "name": "getApproved",
      "outputs": [
        {
          "internalType": "address",
          "name": "",
          "type": "address"
        }
      ],
      "stateMutability": "view",
      "type": "function"
    },
    {
      "inputs": [
        {
          "internalType": "address",
          "name": "owner",
          "type": "address"
        },
        {
          "internalType": "address",
          "name": "operator",
          "type": "address"
        }
      ],
      "name": "isApprovedForAll",
      "outputs": [
        {
          "internalType": "bool",
          "name": "",
          "type": "bool"
        }
      ],
      "stateMutability": "view",
      "type": "function"
    },
    {
      "inputs": [],
      "name": "makeAnEpicNFT",
      "outputs": [],
      "stateMutability": "nonpayable",
      "type": "function"
    },
    {
      "inputs": [],
      "name": "name",
      "outputs": [
        {
          "internalType": "string",
          "name": "",
          "type": "string"
        }
      ],
      "stateMutability": "view",
      "type": "function"
    },
    {
      "inputs": [],
      "name": "nftCount",
      "outputs": [
        {
          "internalType": "uint256",
          "name": "_value",
          "type": "uint256"
        }
      ],
      "stateMutability": "view",
      "type": "function"
    },
    {
      "inputs": [
        {
          "internalType": "uint256",
          "name": "tokenId",
          "type": "uint256"
        }
      ],
      "name": "ownerOf",
      "outputs": [
        {
          "internalType": "address",
          "name": "",
          "type": "address"
        }
      ],
      "stateMutability": "view",
      "type": "function"
    },
    {
      "inputs": [
        {
          "internalType": "uint256",
          "name": "tokenId",
          "type": "uint256"
        }
      ],
      "name": "pickRandomFirstWord",
      "outputs": [
        {
          "internalType": "string",
          "name": "",
          "type": "string"
        }
      ],
      "stateMutability": "view",
      "type": "function"
    },
    {
      "inputs": [
        {
          "internalType": "uint256",
          "name": "tokenId",
          "type": "uint256"
        }
      ],
      "name": "pickRandomSecondWord",
      "outputs": [
        {
          "internalType": "string",
          "name": "",
          "type": "string"
        }
      ],
      "stateMutability": "view",
      "type": "function"
    },
    {
      "inputs": [
        {
          "internalType": "uint256",
          "name": "tokenId",
          "type": "uint256"
        }
      ],
      "name": "pickRandomThirdWord",
      "outputs": [
        {
          "internalType": "string",
          "name": "",
          "type": "string"
        }
      ],
      "stateMutability": "view",
      "type": "function"
    },
    {
      "inputs": [
        {
          "internalType": "address",
          "name": "from",
          "type": "address"
        },
        {
          "internalType": "address",
          "name": "to",
          "type": "address"
        },
        {
          "internalType": "uint256",
          "name": "tokenId",
          "type": "uint256"
        }
      ],
      "name": "safeTransferFrom",
      "outputs": [],
      "stateMutability": "nonpayable",
      "type": "function"
    },
    {
      "inputs": [
        {
          "internalType": "address",
          "name": "from",
          "type": "address"
        },
        {
          "internalType": "address",
          "name": "to",
          "type": "address"
        },
        {
          "internalType": "uint256",
          "name": "tokenId",
          "type": "uint256"
        },
        {
          "internalType": "bytes",
          "name": "data",
          "type": "bytes"
        }
      ],
      "name": "safeTransferFrom",
      "outputs": [],
      "stateMutability": "nonpayable",
      "type": "function"
    },
    {
      "inputs": [
        {
          "internalType": "address",
          "name": "operator",
          "type": "address"
        },
        {
          "internalType": "bool",
          "name": "approved",
          "type": "bool"
        }
      ],
      "name": "setApprovalForAll",
      "outputs": [],
      "stateMutability": "nonpayable",
      "type": "function"
    },
    {
      "inputs": [
        {
          "internalType": "bytes4",
          "name": "interfaceId",
          "type": "bytes4"
        }
      ],
      "name": "supportsInterface",
      "outputs": [
        {
          "internalType": "bool",
          "name": "",
          "type": "bool"
        }
      ],
      "stateMutability": "view",
      "type": "function"
    },
    {
      "inputs": [],
      "name": "symbol",
      "outputs": [
        {
          "internalType": "string",
          "name": "",
          "type": "string"
        }
      ],
      "stateMutability": "view",
      "type": "function"
    },
    {
      "inputs": [
        {
          "internalType": "uint256",
          "name": "tokenId",
          "type": "uint256"
        }
      ],
      "name": "tokenURI",
      "outputs": [
        {
          "internalType": "string",
          "name": "",
          "type": "string"
        }
      ],
      "stateMutability": "view",
      "type": "function"
    },
    {
      "inputs": [
        {
          "internalType": "address",
          "name": "from",
          "type": "address"
        },
        {
          "internalType": "address",
          "name": "to",
          "type": "address"
        },
        {
          "internalType": "uint256",
          "name": "tokenId",
          "type": "uint256"
        }
      ],
      "name": "transferFrom",
      "outputs": [],
      "stateMutability": "nonpayable",
      "type": "function"
    },
    {
      "stateMutability": "payable",
      "type": "receive"
    }
  ],
  "bytecode": "0x6080604052600160095560405180610160016040528061012f81526020016200467b61012f9139600a90805190602001906200003d9291906200068e565b506040518060c001604052806040518060400160405280600881526020017f746f6e6172696e6f00000000000000000000000000000000000000000000000081525081526020016040518060400160405280600a81526020017f616f6d616b6967616d690000000000000000000000000000000000000000000081525081526020016040518060400160405280600481526020017f626173750000000000000000000000000000000000000000000000000000000081525081526020016040518060400160405280600581526020017f6b6165727500000000000000000000000000000000000000000000000000000081525081526020016040518060400160405280600581526020017f746f6b796f00000000000000000000000000000000000000000000000000000081525081526020016040518060400160405280600181526020017f4900000000000000000000000000000000000000000000000000000000000000815250815250600b906006620001bb9291906200071f565b506040518060c001604052806040518060400160405280600881526020017f6b79616b752d686100000000000000000000000000000000000000000000000081525081526020016040518060400160405280600b81526020017f616b616d616b6967616d6900000000000000000000000000000000000000000081525081526020016040518060400160405280600481526020017f676173750000000000000000000000000000000000000000000000000000000081525081526020016040518060400160405280600b81526020017f70796f6b6f2d70796f6b6f00000000000000000000000000000000000000000081525081526020016040518060400160405280600681526020017f746f6b6b796f000000000000000000000000000000000000000000000000000081525081526020016040518060400160405280600281526020017f616d000000000000000000000000000000000000000000000000000000000000815250815250600c906006620003399291906200071f565b506040518060c001604052806040518060400160405280601481526020017f796f6b752d6b616b696b75752d6b79616b75646100000000000000000000000081525081526020016040518060400160405280600a81526020017f6b696d616b6967616d690000000000000000000000000000000000000000000081525081526020016040518060400160405280600981526020017f62616b756861747375000000000000000000000000000000000000000000000081525081526020016040518060400160405280600e81526020017f6d752d70796f6b6f2d70796f6b6f00000000000000000000000000000000000081525081526020016040518060400160405280600b81526020017f6b796f6b612d6b796f6b7500000000000000000000000000000000000000000081525081526020016040518060400160405280600681526020017f68756e6772790000000000000000000000000000000000000000000000000000815250815250600d906006620004b79291906200071f565b50348015620004c557600080fd5b506040518060400160405280600981526020017f5371756172654e465400000000000000000000000000000000000000000000008152506040518060400160405280600681526020017f535155415245000000000000000000000000000000000000000000000000000081525081600090805190602001906200054a9291906200068e565b508060019080519060200190620005639291906200068e565b505050620005b16040518060400160405280601881526020017f54686973206973206d79204e465420636f6e74726163742e0000000000000000815250620005c260201b620013271760201c565b603c60086000018190555062000940565b6200066281604051602401620005d99190620008b7565b6040516020818303038152906040527f41304fac000000000000000000000000000000000000000000000000000000007bffffffffffffffffffffffffffffffffffffffffffffffffffffffff19166020820180517bffffffffffffffffffffffffffffffffffffffffffffffffffffffff83818316178352505050506200066560201b60201c565b50565b60008151905060006a636f6e736f6c652e6c6f679050602083016000808483855afa5050505050565b8280546200069c906200090a565b90600052602060002090601f016020900481019282620006c057600085556200070c565b82601f10620006db57805160ff19168380011785556200070c565b828001600101855582156200070c579182015b828111156200070b578251825591602001919060010190620006ee565b5b5090506200071b919062000786565b5090565b82805482825590600052602060002090810192821562000773579160200282015b8281111562000772578251829080519060200190620007619291906200068e565b509160200191906001019062000740565b5b509050620007829190620007a5565b5090565b5b80821115620007a157600081600090555060010162000787565b5090565b5b80821115620007c95760008181620007bf9190620007cd565b50600101620007a6565b5090565b508054620007db906200090a565b6000825580601f10620007ef575062000810565b601f0160209004906000526020600020908101906200080f919062000786565b5b50565b600081519050919050565b600082825260208201905092915050565b60005b838110156200084f57808201518184015260208101905062000832565b838111156200085f576000848401525b50505050565b6000601f19601f8301169050919050565b6000620008838262000813565b6200088f81856200081e565b9350620008a18185602086016200082f565b620008ac8162000865565b840191505092915050565b60006020820190508181036000830152620008d3818462000876565b905092915050565b7f4e487b7100000000000000000000000000000000000000000000000000000000600052602260045260246000fd5b600060028204905060018216806200092357607f821691505b602082108114156200093a5762000939620008db565b5b50919050565b613d2b80620009506000396000f3fe60806040526004361061010d5760003560e01c806370a0823111610095578063b88d4fde11610064578063b88d4fde14610433578063c575757a1461045c578063c87b56dd14610499578063de9d132f146104d6578063e985e9c5146104ed57610191565b806370a082311461036557806395d89b41146103a2578063a22cb465146103cd578063b187301f146103f657610191565b80630af2c6ca116100dc5780630af2c6ca1461026e57806323b872dd146102995780632de38d68146102c257806342842e0e146102ff5780636352211e1461032857610191565b806301ffc9a7146101a057806306fdde03146101dd578063081812fc14610208578063095ea7b31461024557610191565b36610191576009543414610156576040517f08c379a000000000000000000000000000000000000000000000000000000000815260040161014d9061261d565b60405180910390fd5b7f88a5966d370b9919b20f3e2c13ff65706f196a4e32cc2c12bf57088f885258743334604051610187929190612697565b60405180910390a1005b34801561019d57600080fd5b50005b3480156101ac57600080fd5b506101c760048036038101906101c2919061272c565b61052a565b6040516101d49190612774565b60405180910390f35b3480156101e957600080fd5b506101f261060c565b6040516101ff9190612817565b60405180910390f35b34801561021457600080fd5b5061022f600480360381019061022a9190612865565b61069e565b60405161023c9190612892565b60405180910390f35b34801561025157600080fd5b5061026c600480360381019061026791906128d9565b6106e4565b005b34801561027a57600080fd5b506102836107fc565b6040516102909190612919565b60405180910390f35b3480156102a557600080fd5b506102c060048036038101906102bb9190612934565b610808565b005b3480156102ce57600080fd5b506102e960048036038101906102e49190612865565b610868565b6040516102f69190612817565b60405180910390f35b34801561030b57600080fd5b5061032660048036038101906103219190612934565b6109de565b005b34801561033457600080fd5b5061034f600480360381019061034a9190612865565b6109fe565b60405161035c9190612892565b60405180910390f35b34801561037157600080fd5b5061038c60048036038101906103879190612987565b610ab0565b6040516103999190612919565b60405180910390f35b3480156103ae57600080fd5b506103b7610b68565b6040516103c49190612817565b60405180910390f35b3480156103d957600080fd5b506103f460048036038101906103ef91906129e0565b610bfa565b005b34801561040257600080fd5b5061041d60048036038101906104189190612865565b610c10565b60405161042a9190612817565b60405180910390f35b34801561043f57600080fd5b5061045a60048036038101906104559190612b55565b610d08565b005b34801561046857600080fd5b50610483600480360381019061047e9190612865565b610d6a565b6040516104909190612817565b60405180910390f35b3480156104a557600080fd5b506104c060048036038101906104bb9190612865565b610e62565b6040516104cd9190612817565b60405180910390f35b3480156104e257600080fd5b506104eb610f75565b005b3480156104f957600080fd5b50610514600480360381019061050f9190612bd8565b611293565b6040516105219190612774565b60405180910390f35b60007f80ac58cd000000000000000000000000000000000000000000000000000000007bffffffffffffffffffffffffffffffffffffffffffffffffffffffff1916827bffffffffffffffffffffffffffffffffffffffffffffffffffffffff191614806105f557507f5b5e139f000000000000000000000000000000000000000000000000000000007bffffffffffffffffffffffffffffffffffffffffffffffffffffffff1916827bffffffffffffffffffffffffffffffffffffffffffffffffffffffff1916145b806106055750610604826113c0565b5b9050919050565b60606000805461061b90612c47565b80601f016020809104026020016040519081016040528092919081815260200182805461064790612c47565b80156106945780601f1061066957610100808354040283529160200191610694565b820191906000526020600020905b81548152906001019060200180831161067757829003601f168201915b5050505050905090565b60006106a98261142a565b6004600083815260200190815260200160002060009054906101000a900473ffffffffffffffffffffffffffffffffffffffff169050919050565b60006106ef826109fe565b90508073ffffffffffffffffffffffffffffffffffffffff168373ffffffffffffffffffffffffffffffffffffffff161415610760576040517f08c379a000000000000000000000000000000000000000000000000000000000815260040161075790612ceb565b60405180910390fd5b8073ffffffffffffffffffffffffffffffffffffffff1661077f611475565b73ffffffffffffffffffffffffffffffffffffffff1614806107ae57506107ad816107a8611475565b611293565b5b6107ed576040517f08c379a00000000000000000000000000000000000000000000000000000000081526004016107e490612d7d565b60405180910390fd5b6107f7838361147d565b505050565b60088060000154905081565b610819610813611475565b82611536565b610858576040517f08c379a000000000000000000000000000000000000000000000000000000000815260040161084f90612e0f565b60405180910390fd5b6108638383836115cb565b505050565b6060600061089c61087884611832565b6040516020016108889190612eb7565b604051602081830303815290604052611993565b90506108dd6040518060400160405280600b81526020017f72616e6420736565643a20000000000000000000000000000000000000000000815250826119c6565b600b80549050816108ee9190612f08565b905061092f6040518060400160405280601181526020017f72616e6420666972737420776f72643a20000000000000000000000000000000815250826119c6565b600b818154811061094357610942612f39565b5b90600052602060002001805461095890612c47565b80601f016020809104026020016040519081016040528092919081815260200182805461098490612c47565b80156109d15780601f106109a6576101008083540402835291602001916109d1565b820191906000526020600020905b8154815290600101906020018083116109b457829003601f168201915b5050505050915050919050565b6109f983838360405180602001604052806000815250610d08565b505050565b6000806002600084815260200190815260200160002060009054906101000a900473ffffffffffffffffffffffffffffffffffffffff169050600073ffffffffffffffffffffffffffffffffffffffff168173ffffffffffffffffffffffffffffffffffffffff161415610aa7576040517f08c379a0000000000000000000000000000000000000000000000000000000008152600401610a9e90612fb4565b60405180910390fd5b80915050919050565b60008073ffffffffffffffffffffffffffffffffffffffff168273ffffffffffffffffffffffffffffffffffffffff161415610b21576040517f08c379a0000000000000000000000000000000000000000000000000000000008152600401610b1890613046565b60405180910390fd5b600360008373ffffffffffffffffffffffffffffffffffffffff1673ffffffffffffffffffffffffffffffffffffffff168152602001908152602001600020549050919050565b606060018054610b7790612c47565b80601f0160208091040260200160405190810160405280929190818152602001828054610ba390612c47565b8015610bf05780601f10610bc557610100808354040283529160200191610bf0565b820191906000526020600020905b815481529060010190602001808311610bd357829003601f168201915b5050505050905090565b610c0c610c05611475565b8383611a62565b5050565b60606000610c44610c2084611832565b604051602001610c3091906130b2565b604051602081830303815290604052611993565b9050600c8054905081610c579190612f08565b9050600c8181548110610c6d57610c6c612f39565b5b906000526020600020018054610c8290612c47565b80601f0160208091040260200160405190810160405280929190818152602001828054610cae90612c47565b8015610cfb5780601f10610cd057610100808354040283529160200191610cfb565b820191906000526020600020905b815481529060010190602001808311610cde57829003601f168201915b5050505050915050919050565b610d19610d13611475565b83611536565b610d58576040517f08c379a0000000000000000000000000000000000000000000000000000000008152600401610d4f90612e0f565b60405180910390fd5b610d6484848484611bcf565b50505050565b60606000610d9e610d7a84611832565b604051602001610d8a9190613120565b604051602081830303815290604052611993565b9050600d8054905081610db19190612f08565b9050600d8181548110610dc757610dc6612f39565b5b906000526020600020018054610ddc90612c47565b80601f0160208091040260200160405190810160405280929190818152602001828054610e0890612c47565b8015610e555780601f10610e2a57610100808354040283529160200191610e55565b820191906000526020600020905b815481529060010190602001808311610e3857829003601f168201915b5050505050915050919050565b6060610e6d8261142a565b6000600660008481526020019081526020016000208054610e8d90612c47565b80601f0160208091040260200160405190810160405280929190818152602001828054610eb990612c47565b8015610f065780601f10610edb57610100808354040283529160200191610f06565b820191906000526020600020905b815481529060010190602001808311610ee957829003601f168201915b505050505090506000610f17611c2b565b9050600081511415610f2d578192505050610f70565b600082511115610f62578082604051602001610f4a929190613142565b60405160208183030381529060405292505050610f70565b610f6b84611c42565b925050505b919050565b6000610f816008611caa565b11610fc1576040517f08c379a0000000000000000000000000000000000000000000000000000000008152600401610fb8906131b2565b60405180910390fd5b6000610fcd6007611caa565b90506000610fda82610868565b90506000610fe783610c10565b90506000610ff484610d6a565b9050600083838360405160200161100d939291906131d2565b60405160208183030381529060405290506000600a85858560405160200161103894939291906132e3565b60405160208183030381529060405290506110876040518060400160405280601581526020017f0a2d2d2d2d2d205356472064617461202d2d2d2d2d0000000000000000000000815250611327565b61109081611327565b6110ce6040518060400160405280601581526020017f2d2d2d2d2d2d2d2d2d2d2d2d2d2d2d2d2d2d2d2d0a0000000000000000000000815250611327565b6000611102836110dd84611cb8565b6040516020016110ee929190613482565b604051602081830303815290604052611cb8565b90506000816040516020016111179190613513565b60405160208183030381529060405290506111666040518060400160405280601581526020017f0a2d2d2d2d2d20546f6b656e20555249202d2d2d2d0000000000000000000000815250611327565b61116f81611327565b6111ad6040518060400160405280601581526020017f2d2d2d2d2d2d2d2d2d2d2d2d2d2d2d2d2d2d2d2d0a0000000000000000000000815250611327565b6111b73389611e50565b6111c18882611e6e565b6111e4604051806060016040528060258152602001613c91602591398933611ee2565b6111ee6007611f81565b6111f86008611f97565b60006112046008611caa565b905061124d6040518060400160405280600c81526020017f6e6674436f756e743a202573000000000000000000000000000000000000000081525061124883611832565b611ff3565b7f9e9e101732de0887d722bd72c01c5439edc857c9c2c763953d67e66de12441d3338a8360405161128093929190613535565b60405180910390a1505050505050505050565b6000600560008473ffffffffffffffffffffffffffffffffffffffff1673ffffffffffffffffffffffffffffffffffffffff16815260200190815260200160002060008373ffffffffffffffffffffffffffffffffffffffff1673ffffffffffffffffffffffffffffffffffffffff16815260200190815260200160002060009054906101000a900460ff16905092915050565b6113bd8160405160240161133b9190612817565b6040516020818303038152906040527f41304fac000000000000000000000000000000000000000000000000000000007bffffffffffffffffffffffffffffffffffffffffffffffffffffffff19166020820180517bffffffffffffffffffffffffffffffffffffffffffffffffffffffff838183161783525050505061208f565b50565b60007f01ffc9a7000000000000000000000000000000000000000000000000000000007bffffffffffffffffffffffffffffffffffffffffffffffffffffffff1916827bffffffffffffffffffffffffffffffffffffffffffffffffffffffff1916149050919050565b611433816120b8565b611472576040517f08c379a000000000000000000000000000000000000000000000000000000000815260040161146990612fb4565b60405180910390fd5b50565b600033905090565b816004600083815260200190815260200160002060006101000a81548173ffffffffffffffffffffffffffffffffffffffff021916908373ffffffffffffffffffffffffffffffffffffffff160217905550808273ffffffffffffffffffffffffffffffffffffffff166114f0836109fe565b73ffffffffffffffffffffffffffffffffffffffff167f8c5be1e5ebec7d5bd14f71427d1e84f3dd0314c0f7b2291e5b200ac8c7c3b92560405160405180910390a45050565b600080611542836109fe565b90508073ffffffffffffffffffffffffffffffffffffffff168473ffffffffffffffffffffffffffffffffffffffff16148061158457506115838185611293565b5b806115c257508373ffffffffffffffffffffffffffffffffffffffff166115aa8461069e565b73ffffffffffffffffffffffffffffffffffffffff16145b91505092915050565b8273ffffffffffffffffffffffffffffffffffffffff166115eb826109fe565b73ffffffffffffffffffffffffffffffffffffffff1614611641576040517f08c379a0000000000000000000000000000000000000000000000000000000008152600401611638906135de565b60405180910390fd5b600073ffffffffffffffffffffffffffffffffffffffff168273ffffffffffffffffffffffffffffffffffffffff1614156116b1576040517f08c379a00000000000000000000000000000000000000000000000000000000081526004016116a890613670565b60405180910390fd5b6116bc838383612124565b6116c760008261147d565b6001600360008573ffffffffffffffffffffffffffffffffffffffff1673ffffffffffffffffffffffffffffffffffffffff168152602001908152602001600020600082825461171791906136bf565b925050819055506001600360008473ffffffffffffffffffffffffffffffffffffffff1673ffffffffffffffffffffffffffffffffffffffff168152602001908152602001600020600082825461176e91906136f3565b92505081905550816002600083815260200190815260200160002060006101000a81548173ffffffffffffffffffffffffffffffffffffffff021916908373ffffffffffffffffffffffffffffffffffffffff160217905550808273ffffffffffffffffffffffffffffffffffffffff168473ffffffffffffffffffffffffffffffffffffffff167fddf252ad1be2c89b69c2b068fc378daa952ba7f163c4a11628f55a4df523b3ef60405160405180910390a461182d838383612129565b505050565b6060600082141561187a576040518060400160405280600181526020017f3000000000000000000000000000000000000000000000000000000000000000815250905061198e565b600082905060005b600082146118ac57808061189590613749565b915050600a826118a59190613792565b9150611882565b60008167ffffffffffffffff8111156118c8576118c7612a2a565b5b6040519080825280601f01601f1916602001820160405280156118fa5781602001600182028036833780820191505090505b5090505b600085146119875760018261191391906136bf565b9150600a856119229190612f08565b603061192e91906136f3565b60f81b81838151811061194457611943612f39565b5b60200101907effffffffffffffffffffffffffffffffffffffffffffffffffffffffffffff1916908160001a905350600a856119809190613792565b94506118fe565b8093505050505b919050565b6000816040516020016119a691906137c3565b6040516020818303038152906040528051906020012060001c9050919050565b611a5e82826040516024016119dc9291906137da565b6040516020818303038152906040527f9710a9d0000000000000000000000000000000000000000000000000000000007bffffffffffffffffffffffffffffffffffffffffffffffffffffffff19166020820180517bffffffffffffffffffffffffffffffffffffffffffffffffffffffff838183161783525050505061208f565b5050565b8173ffffffffffffffffffffffffffffffffffffffff168373ffffffffffffffffffffffffffffffffffffffff161415611ad1576040517f08c379a0000000000000000000000000000000000000000000000000000000008152600401611ac890613856565b60405180910390fd5b80600560008573ffffffffffffffffffffffffffffffffffffffff1673ffffffffffffffffffffffffffffffffffffffff16815260200190815260200160002060008473ffffffffffffffffffffffffffffffffffffffff1673ffffffffffffffffffffffffffffffffffffffff16815260200190815260200160002060006101000a81548160ff0219169083151502179055508173ffffffffffffffffffffffffffffffffffffffff168373ffffffffffffffffffffffffffffffffffffffff167f17307eab39ab6107e8899845ad3d59bd9653f200f220920489ca2b5937696c3183604051611bc29190612774565b60405180910390a3505050565b611bda8484846115cb565b611be68484848461212e565b611c25576040517f08c379a0000000000000000000000000000000000000000000000000000000008152600401611c1c906138e8565b60405180910390fd5b50505050565b606060405180602001604052806000815250905090565b6060611c4d8261142a565b6000611c57611c2b565b90506000815111611c775760405180602001604052806000815250611ca2565b80611c8184611832565b604051602001611c92929190613142565b6040516020818303038152906040525b915050919050565b600081600001549050919050565b60606000825190506000811415611ce15760405180602001604052806000815250915050611e4b565b60006003600283611cf291906136f3565b611cfc9190613792565b6004611d089190613908565b90506000602082611d1991906136f3565b67ffffffffffffffff811115611d3257611d31612a2a565b5b6040519080825280601f01601f191660200182016040528015611d645781602001600182028036833780820191505090505b5090506000604051806060016040528060408152602001613cb6604091399050600181016020830160005b86811015611e085760038101905062ffffff818a015116603f8160121c168401518060081b905060ff603f83600c1c1686015116810190508060081b905060ff603f8360061c1686015116810190508060081b905060ff603f831686015116810190508060e01b90508084526004840193505050611d8f565b506003860660018114611e225760028114611e3257611e3d565b613d3d60f01b6002830352611e3d565b603d60f81b60018303525b508484525050819450505050505b919050565b611e6a8282604051806020016040528060008152506122c5565b5050565b611e77826120b8565b611eb6576040517f08c379a0000000000000000000000000000000000000000000000000000000008152600401611ead906139d4565b60405180910390fd5b80600660008481526020019081526020016000209080519060200190611edd92919061251d565b505050565b611f7c838383604051602401611efa939291906139f4565b6040516020818303038152906040527fe3849f79000000000000000000000000000000000000000000000000000000007bffffffffffffffffffffffffffffffffffffffffffffffffffffffff19166020820180517bffffffffffffffffffffffffffffffffffffffffffffffffffffffff838183161783525050505061208f565b505050565b6001816000016000828254019250508190555050565b60008160000154905060008111611fe3576040517f08c379a0000000000000000000000000000000000000000000000000000000008152600401611fda90613a7e565b60405180910390fd5b6001810382600001819055505050565b61208b8282604051602401612009929190613a9e565b6040516020818303038152906040527f4b5c4277000000000000000000000000000000000000000000000000000000007bffffffffffffffffffffffffffffffffffffffffffffffffffffffff19166020820180517bffffffffffffffffffffffffffffffffffffffffffffffffffffffff838183161783525050505061208f565b5050565b60008151905060006a636f6e736f6c652e6c6f679050602083016000808483855afa5050505050565b60008073ffffffffffffffffffffffffffffffffffffffff166002600084815260200190815260200160002060009054906101000a900473ffffffffffffffffffffffffffffffffffffffff1673ffffffffffffffffffffffffffffffffffffffff1614159050919050565b505050565b505050565b600061214f8473ffffffffffffffffffffffffffffffffffffffff16612320565b156122b8578373ffffffffffffffffffffffffffffffffffffffff1663150b7a02612178611475565b8786866040518563ffffffff1660e01b815260040161219a9493929190613b2a565b602060405180830381600087803b1580156121b457600080fd5b505af19250505080156121e557506040513d601f19601f820116820180604052508101906121e29190613b8b565b60015b612268573d8060008114612215576040519150601f19603f3d011682016040523d82523d6000602084013e61221a565b606091505b50600081511415612260576040517f08c379a0000000000000000000000000000000000000000000000000000000008152600401612257906138e8565b60405180910390fd5b805181602001fd5b63150b7a0260e01b7bffffffffffffffffffffffffffffffffffffffffffffffffffffffff1916817bffffffffffffffffffffffffffffffffffffffffffffffffffffffff1916149150506122bd565b600190505b949350505050565b6122cf8383612343565b6122dc600084848461212e565b61231b576040517f08c379a0000000000000000000000000000000000000000000000000000000008152600401612312906138e8565b60405180910390fd5b505050565b6000808273ffffffffffffffffffffffffffffffffffffffff163b119050919050565b600073ffffffffffffffffffffffffffffffffffffffff168273ffffffffffffffffffffffffffffffffffffffff1614156123b3576040517f08c379a00000000000000000000000000000000000000000000000000000000081526004016123aa90613c04565b60405180910390fd5b6123bc816120b8565b156123fc576040517f08c379a00000000000000000000000000000000000000000000000000000000081526004016123f390613c70565b60405180910390fd5b61240860008383612124565b6001600360008473ffffffffffffffffffffffffffffffffffffffff1673ffffffffffffffffffffffffffffffffffffffff168152602001908152602001600020600082825461245891906136f3565b92505081905550816002600083815260200190815260200160002060006101000a81548173ffffffffffffffffffffffffffffffffffffffff021916908373ffffffffffffffffffffffffffffffffffffffff160217905550808273ffffffffffffffffffffffffffffffffffffffff16600073ffffffffffffffffffffffffffffffffffffffff167fddf252ad1be2c89b69c2b068fc378daa952ba7f163c4a11628f55a4df523b3ef60405160405180910390a461251960008383612129565b5050565b82805461252990612c47565b90600052602060002090601f01602090048101928261254b5760008555612592565b82601f1061256457805160ff1916838001178555612592565b82800160010185558215612592579182015b82811115612591578251825591602001919060010190612576565b5b50905061259f91906125a3565b5090565b5b808211156125bc5760008160009055506001016125a4565b5090565b600082825260208201905092915050565b7f4e6f742070617965642066756c6c206d6f6e6579000000000000000000000000600082015250565b60006126076014836125c0565b9150612612826125d1565b602082019050919050565b60006020820190508181036000830152612636816125fa565b9050919050565b600073ffffffffffffffffffffffffffffffffffffffff82169050919050565b60006126688261263d565b9050919050565b6126788161265d565b82525050565b6000819050919050565b6126918161267e565b82525050565b60006040820190506126ac600083018561266f565b6126b96020830184612688565b9392505050565b6000604051905090565b600080fd5b600080fd5b60007fffffffff0000000000000000000000000000000000000000000000000000000082169050919050565b612709816126d4565b811461271457600080fd5b50565b60008135905061272681612700565b92915050565b600060208284031215612742576127416126ca565b5b600061275084828501612717565b91505092915050565b60008115159050919050565b61276e81612759565b82525050565b60006020820190506127896000830184612765565b92915050565b600081519050919050565b60005b838110156127b857808201518184015260208101905061279d565b838111156127c7576000848401525b50505050565b6000601f19601f8301169050919050565b60006127e98261278f565b6127f381856125c0565b935061280381856020860161279a565b61280c816127cd565b840191505092915050565b6000602082019050818103600083015261283181846127de565b905092915050565b6128428161267e565b811461284d57600080fd5b50565b60008135905061285f81612839565b92915050565b60006020828403121561287b5761287a6126ca565b5b600061288984828501612850565b91505092915050565b60006020820190506128a7600083018461266f565b92915050565b6128b68161265d565b81146128c157600080fd5b50565b6000813590506128d3816128ad565b92915050565b600080604083850312156128f0576128ef6126ca565b5b60006128fe858286016128c4565b925050602061290f85828601612850565b9150509250929050565b600060208201905061292e6000830184612688565b92915050565b60008060006060848603121561294d5761294c6126ca565b5b600061295b868287016128c4565b935050602061296c868287016128c4565b925050604061297d86828701612850565b9150509250925092565b60006020828403121561299d5761299c6126ca565b5b60006129ab848285016128c4565b91505092915050565b6129bd81612759565b81146129c857600080fd5b50565b6000813590506129da816129b4565b92915050565b600080604083850312156129f7576129f66126ca565b5b6000612a05858286016128c4565b9250506020612a16858286016129cb565b9150509250929050565b600080fd5b600080fd5b7f4e487b7100000000000000000000000000000000000000000000000000000000600052604160045260246000fd5b612a62826127cd565b810181811067ffffffffffffffff82111715612a8157612a80612a2a565b5b80604052505050565b6000612a946126c0565b9050612aa08282612a59565b919050565b600067ffffffffffffffff821115612ac057612abf612a2a565b5b612ac9826127cd565b9050602081019050919050565b82818337600083830152505050565b6000612af8612af384612aa5565b612a8a565b905082815260208101848484011115612b1457612b13612a25565b5b612b1f848285612ad6565b509392505050565b600082601f830112612b3c57612b3b612a20565b5b8135612b4c848260208601612ae5565b91505092915050565b60008060008060808587031215612b6f57612b6e6126ca565b5b6000612b7d878288016128c4565b9450506020612b8e878288016128c4565b9350506040612b9f87828801612850565b925050606085013567ffffffffffffffff811115612bc057612bbf6126cf565b5b612bcc87828801612b27565b91505092959194509250565b60008060408385031215612bef57612bee6126ca565b5b6000612bfd858286016128c4565b9250506020612c0e858286016128c4565b9150509250929050565b7f4e487b7100000000000000000000000000000000000000000000000000000000600052602260045260246000fd5b60006002820490506001821680612c5f57607f821691505b60208210811415612c7357612c72612c18565b5b50919050565b7f4552433732313a20617070726f76616c20746f2063757272656e74206f776e6560008201527f7200000000000000000000000000000000000000000000000000000000000000602082015250565b6000612cd56021836125c0565b9150612ce082612c79565b604082019050919050565b60006020820190508181036000830152612d0481612cc8565b9050919050565b7f4552433732313a20617070726f76652063616c6c6572206973206e6f7420746f60008201527f6b656e206f776e6572206e6f7220617070726f76656420666f7220616c6c0000602082015250565b6000612d67603e836125c0565b9150612d7282612d0b565b604082019050919050565b60006020820190508181036000830152612d9681612d5a565b9050919050565b7f4552433732313a2063616c6c6572206973206e6f7420746f6b656e206f776e6560008201527f72206e6f7220617070726f766564000000000000000000000000000000000000602082015250565b6000612df9602e836125c0565b9150612e0482612d9d565b604082019050919050565b60006020820190508181036000830152612e2881612dec565b9050919050565b600081905092915050565b7f46495253545f574f524400000000000000000000000000000000000000000000600082015250565b6000612e70600a83612e2f565b9150612e7b82612e3a565b600a82019050919050565b6000612e918261278f565b612e9b8185612e2f565b9350612eab81856020860161279a565b80840191505092915050565b6000612ec282612e63565b9150612ece8284612e86565b915081905092915050565b7f4e487b7100000000000000000000000000000000000000000000000000000000600052601260045260246000fd5b6000612f138261267e565b9150612f1e8361267e565b925082612f2e57612f2d612ed9565b5b828206905092915050565b7f4e487b7100000000000000000000000000000000000000000000000000000000600052603260045260246000fd5b7f4552433732313a20696e76616c696420746f6b656e2049440000000000000000600082015250565b6000612f9e6018836125c0565b9150612fa982612f68565b602082019050919050565b60006020820190508181036000830152612fcd81612f91565b9050919050565b7f4552433732313a2061646472657373207a65726f206973206e6f74206120766160008201527f6c6964206f776e65720000000000000000000000000000000000000000000000602082015250565b60006130306029836125c0565b915061303b82612fd4565b604082019050919050565b6000602082019050818103600083015261305f81613023565b9050919050565b7f5345434f4e445f574f5244000000000000000000000000000000000000000000600082015250565b600061309c600b83612e2f565b91506130a782613066565b600b82019050919050565b60006130bd8261308f565b91506130c98284612e86565b915081905092915050565b7f54484952445f574f524400000000000000000000000000000000000000000000600082015250565b600061310a600a83612e2f565b9150613115826130d4565b600a82019050919050565b600061312b826130fd565b91506131378284612e86565b915081905092915050565b600061314e8285612e86565b915061315a8284612e86565b91508190509392505050565b7f6e6f204e46542072656d61696e73000000000000000000000000000000000000600082015250565b600061319c600e836125c0565b91506131a782613166565b602082019050919050565b600060208201905081810360008301526131cb8161318f565b9050919050565b60006131de8286612e86565b91506131ea8285612e86565b91506131f68284612e86565b9150819050949350505050565b60008190508160005260206000209050919050565b6000815461322581612c47565b61322f8186612e2f565b9450600182166000811461324a576001811461325b5761328e565b60ff1983168652818601935061328e565b61326485613203565b60005b8381101561328657815481890152600182019150602081019050613267565b838801955050505b50505092915050565b7f3c2f746578743e3c2f7376673e00000000000000000000000000000000000000600082015250565b60006132cd600d83612e2f565b91506132d882613297565b600d82019050919050565b60006132ef8287613218565b91506132fb8286612e86565b91506133078285612e86565b91506133138284612e86565b915061331e826132c0565b915081905095945050505050565b7f7b226e616d65223a202200000000000000000000000000000000000000000000600082015250565b6000613362600a83612e2f565b915061336d8261332c565b600a82019050919050565b7f222c20226465736372697074696f6e223a20224120686967686c79206163636c60008201527f61696d656420636f6c6c656374696f6e206f6620737175617265732e222c202260208201527f696d616765223a2022646174613a696d6167652f7376672b786d6c3b6261736560408201527f36342c0000000000000000000000000000000000000000000000000000000000606082015250565b6000613420606383612e2f565b915061342b82613378565b606382019050919050565b7f227d000000000000000000000000000000000000000000000000000000000000600082015250565b600061346c600283612e2f565b915061347782613436565b600282019050919050565b600061348d82613355565b91506134998285612e86565b91506134a482613413565b91506134b08284612e86565b91506134bb8261345f565b91508190509392505050565b7f646174613a6170706c69636174696f6e2f6a736f6e3b6261736536342c000000600082015250565b60006134fd601d83612e2f565b9150613508826134c7565b601d82019050919050565b600061351e826134f0565b915061352a8284612e86565b915081905092915050565b600060608201905061354a600083018661266f565b6135576020830185612688565b6135646040830184612688565b949350505050565b7f4552433732313a207472616e736665722066726f6d20696e636f72726563742060008201527f6f776e6572000000000000000000000000000000000000000000000000000000602082015250565b60006135c86025836125c0565b91506135d38261356c565b604082019050919050565b600060208201905081810360008301526135f7816135bb565b9050919050565b7f4552433732313a207472616e7366657220746f20746865207a65726f2061646460008201527f7265737300000000000000000000000000000000000000000000000000000000602082015250565b600061365a6024836125c0565b9150613665826135fe565b604082019050919050565b600060208201905081810360008301526136898161364d565b9050919050565b7f4e487b7100000000000000000000000000000000000000000000000000000000600052601160045260246000fd5b60006136ca8261267e565b91506136d58361267e565b9250828210156136e8576136e7613690565b5b828203905092915050565b60006136fe8261267e565b91506137098361267e565b9250827fffffffffffffffffffffffffffffffffffffffffffffffffffffffffffffffff0382111561373e5761373d613690565b5b828201905092915050565b60006137548261267e565b91507fffffffffffffffffffffffffffffffffffffffffffffffffffffffffffffffff82141561378757613786613690565b5b600182019050919050565b600061379d8261267e565b91506137a88361267e565b9250826137b8576137b7612ed9565b5b828204905092915050565b60006137cf8284612e86565b915081905092915050565b600060408201905081810360008301526137f481856127de565b90506138036020830184612688565b9392505050565b7f4552433732313a20617070726f766520746f2063616c6c657200000000000000600082015250565b60006138406019836125c0565b915061384b8261380a565b602082019050919050565b6000602082019050818103600083015261386f81613833565b9050919050565b7f4552433732313a207472616e7366657220746f206e6f6e20455243373231526560008201527f63656976657220696d706c656d656e7465720000000000000000000000000000602082015250565b60006138d26032836125c0565b91506138dd82613876565b604082019050919050565b60006020820190508181036000830152613901816138c5565b9050919050565b60006139138261267e565b915061391e8361267e565b9250817fffffffffffffffffffffffffffffffffffffffffffffffffffffffffffffffff048311821515161561395757613956613690565b5b828202905092915050565b7f45524337323155524953746f726167653a2055524920736574206f66206e6f6e60008201527f6578697374656e7420746f6b656e000000000000000000000000000000000000602082015250565b60006139be602e836125c0565b91506139c982613962565b604082019050919050565b600060208201905081810360008301526139ed816139b1565b9050919050565b60006060820190508181036000830152613a0e81866127de565b9050613a1d6020830185612688565b613a2a604083018461266f565b949350505050565b7f436f756e7465723a2064656372656d656e74206f766572666c6f770000000000600082015250565b6000613a68601b836125c0565b9150613a7382613a32565b602082019050919050565b60006020820190508181036000830152613a9781613a5b565b9050919050565b60006040820190508181036000830152613ab881856127de565b90508181036020830152613acc81846127de565b90509392505050565b600081519050919050565b600082825260208201905092915050565b6000613afc82613ad5565b613b068185613ae0565b9350613b1681856020860161279a565b613b1f816127cd565b840191505092915050565b6000608082019050613b3f600083018761266f565b613b4c602083018661266f565b613b596040830185612688565b8181036060830152613b6b8184613af1565b905095945050505050565b600081519050613b8581612700565b92915050565b600060208284031215613ba157613ba06126ca565b5b6000613baf84828501613b76565b91505092915050565b7f4552433732313a206d696e7420746f20746865207a65726f2061646472657373600082015250565b6000613bee6020836125c0565b9150613bf982613bb8565b602082019050919050565b60006020820190508181036000830152613c1d81613be1565b9050919050565b7f4552433732313a20746f6b656e20616c7265616479206d696e74656400000000600082015250565b6000613c5a601c836125c0565b9150613c6582613c24565b602082019050919050565b60006020820190508181036000830152613c8981613c4d565b905091905056fe416e204e465420772f20494420257320686173206265656e206d696e74656420746f2025734142434445464748494a4b4c4d4e4f505152535455565758595a6162636465666768696a6b6c6d6e6f707172737475767778797a303132333435363738392b2fa2646970667358221220e335e6ad74a88fff18f6c7e13d363f1fa7eb790a14e55b871a1e54da36f8e2bc64736f6c634300080900333c73766720786d6c6e733d27687474703a2f2f7777772e77332e6f72672f323030302f73766727207072657365727665417370656374526174696f3d27784d696e594d696e206d656574272076696577426f783d273020302033353020333530273e3c7374796c653e2e62617365207b2066696c6c3a2077686974653b20666f6e742d66616d696c793a2073657269663b20666f6e742d73697a653a20323470783b207d3c2f7374796c653e3c726563742077696474683d273130302527206865696768743d2731303025272066696c6c3d27626c61636b27202f3e3c7465787420783d273530252720793d273530252720636c6173733d27626173652720646f6d696e616e742d626173656c696e653d276d6964646c652720746578742d616e63686f723d276d6964646c65273e",
  "linkReferences": {},
  "deployedLinkReferences": {}
}